:100000000C9484020C94AC020C94AC020C94AC02E0
:100010000C94AC020C94AC020C94AC020C94AC02A8
:100020000C94AC020C94AC020C94AC020C94AC0298
:100030000C94AC020C94AC020C94AC020C94AC0288
:100040000C9475190C94AC020C94E5190C94BF191E
:100050000C94AC020C94AC020C94AC020C94AC0268
:100060000C947A0D0C94AC02467265652053524193
:100070004D3A2020005374617274696E672050728B
:100080006F6772616D3A0944484F5F53696E676CE0
:1000900065506978656C0046726565205352414D24
:1000A0003A2020005374617274696E672050726F39
:1000B0006772616D3A0944484F5F466164650000AC
:1000C000050C1B355E91C7F0FFF0C7915E351B0C28
:1000D000050046726565205352414D3A2020005379
:1000E00074617274696E672050726F6772616D3AE5
:1000F0000944484F5F426C6F620046726565205349
:1001000052414D3A2020005374617274696E672029
:1001100050726F6772616D3A0944484F5F5261696E
:100120006E626F770046726565205352414D3A20EA
:1001300020005374617274696E672050726F677229
:10014000616D3A09477265656E2046697265204F98
:10015000726967696E616C00467265652053524131
:100160004D3A2020005374617274696E672050729A
:100170006F6772616D3A09466972652057697468E4
:10018000205261696E626F7720526F7461746500EE
:1001900046726565205352414D3A202000537461E8
:1001A0007274696E672050726F6772616D3A09539D
:1001B0007061726B6C6546697A7A0046726565207B
:1001C0005352414D3A2020005374617274696E6736
:1001D0002050726F6772616D3A095261696E626F89
:1001E0007720466173744C4544000000FF00002AEC
:1001F000D5000055AB00007FAB0000ABAB0000D5D5
:10020000560000FF00002AD5000055AB0000AA569A
:100210000000FF000000D5002A00AB00550081005F
:100220007F005500AB002B00D5004672656520535A
:1002300052414D3A2020005374617274696E6720F8
:1002400050726F6772616D3A09426F756E63696EC5
:10025000672042616C6C73000000000023002600E0
:10026000290000000000240027002A0000000000F0
:10027000250028002B0004040404040404040202E2
:100280000202020203030303030301020408102015
:100290004080010204081020010204081020000020
:1002A0000008000201000003040700000000000035
:1002B000000046726565205352414D3A202000539C
:1002C00074617274696E672050726F6772616D3A03
:1002D000094669726520576974682050616C6574BD
:1002E00074650046726565205352414D3A202000E6
:1002F0005374617274696E672050726F6772616DBA
:100300003A09537061726B6C65002E094176672063
:100310006163635F6F66667365745F6E6F726D6154
:100320006C697A65643A004E756D626572206F661D
:10033000206D6561737572656D656E74733A20002A
:1003400046726565205352414D3A20200000537497
:10035000617274696E67206C6F6F702E0000446F5D
:100360006E652E00496E697469616C697A696E67A1
:10037000206C69676874732E2E2E200000446F6E07
:10038000652E004D6561737572696E67203120734B
:1003900065636F6E64206F6620616363656C657270
:1003A0006F6D657465722076616C75657320666F1C
:1003B00072207A65726F2076616C75652E2E2E2004
:1003C00000446F6E652E0053657474696E6720611A
:1003D0006363656C2072616E676520746F20322ED6
:1003E0002E2E200053657474696E67206F666673E5
:1003F00065742E2E2E2000094144584C333435208C
:10040000636F6E6E656374696F6E206661696C659B
:10041000642E00094144584C33343520636F6E6EAE
:10042000656374696F6E2073756363657373667556
:100430006C2E0054657374696E67204144584C33C8
:10044000343520636F6E6E656374696F6E732E2E24
:100450002E00446F6E652E00496E697469616C6987
:100460007A696E67204144584C3334352E2E2E2045
:10047000000046726565205352414D3A202000002D
:1004800000496620796F752066696E64207468691A
:100490007320706C65617365206C6574206D6520D8
:1004A0006B6E6F77E280946974206D65616E732066
:1004B000697420686173206265656E2073746F6C67
:1004C000656E2E205468616E6B20796F7521007007
:1004D00061756C776240676D61696C2E636F6D004A
:1004E0006279205061756C20426C61636B62757239
:1004F0006E00464C414D494E474F205245562042D2
:10050000203230323200981F11241FBECFEFD8E0C6
:10051000DEBFCDBF11E0A0E0B1E0ECE1F7E402C046
:1005200005900D92A83BB107D9F726E0A8EBB1E002
:1005300001C01D92A031B207E1F712E0C4E8D2E099
:1005400004C02197FE010E943E21C338D107C9F79C
:100550000E94AA1C0C948C230C9400000F931F93F0
:10056000CF93DF9300D01F92CDB7DEB7AB011982D6
:100570001A821B82DC01ED91FC910190F081E02D4B
:1005800000E010E020E0BE016F5F7F4F09950F9003
:100590000F900F90DF91CF911F910F91089580914F
:1005A000C001893019F48FEF8093F5050895FC019F
:1005B00085859685089580E090E008956F927F92FA
:1005C0008F92CF92DF92EF92FF920F931F93CF9370
:1005D000DF93CDB7DEB762970FB6F894DEBF0FBEDC
:1005E000CDBF6C017A013801822EDC011C962C9162
:1005F000CA0157FF04C088279927841B950B7A836B
:1006000069839C838B839E838D836D867E868F8694
:10061000213029F4CE0101960E948B1206C01C865F
:100620001B861A86198618861F8283E0888B1A8A91
:10063000198AF7FE02C08DEF888BD601ED91FC91EF
:100640000484F585E02DBE016F5F7F4FC6010995DB
:1006500062960FB6F894DEBF0FBECDBFDF91CF918B
:100660001F910F91FF90EF90DF90CF908F907F9030
:100670006F900895EF92FF920F931F93CF93DF93A4
:10068000CDB7DEB762970FB6F894DEBF0FBECDBF11
:100690007C01DC011C968C917A8369835C834B839B
:1006A0005E834D830D871E872F87813029F4CE010D
:1006B00001960E948B1206C01C861B861A8619861C
:1006C00018861F82188A1A8A198AD701ED91FC911F
:1006D0000484F585E02DBE016F5F7F4FC70109954A
:1006E00062960FB6F894DEBF0FBECDBFDF91CF91FB
:1006F0001F910F91FF90EF9008950F931F93CF9349
:10070000DF93CEEED5E008EE13E02FEE35E042E0C9
:1007100064E388810E94F31269817A81072E000CBC
:10072000880B990B0E94602220E030E040E151E408
:100730000E94442120E030E04AE952E40E94B621C0
:10074000DF91CF911F910F9108951F93DC01FB0161
:100750007C9111965C91119712961C91972F9F7125
:10076000990F990F990F35E5292F239F020E20E04D
:10077000211D1124822F672F6074472F407277FD4F
:100780001FC061110AC0411103C0922F909511C082
:1007900025E5280F90E08BEA34C041110DC0392FB8
:1007A0002AEA329F030E30E0311D11249BEA931B8D
:1007B000280F892F90E025C090E02095982F0FC03A
:1007C000611112C041110DC0392F2AEA329F030E68
:1007D00030E0311D11242BEA231B95E5930F80E0B7
:1007E00010C0922F90950CC0411104C025E5280F30
:1007F0009BEA04C02AEA280F90E0932F981B822FCF
:1008000020E05F3F09F426C0552309F420C050952D
:1008100030E0552329F0559F312D112451113F5FB0
:10082000432F4095682F649F060E60E0611D249F52
:10083000020E20E0211D592F549F050E50E0511D3E
:100840001124832F860F230F952F930F03C09FEF43
:100850002FEF8FEF1F3FF1F030E0112321F0119FB8
:10086000312D09F03F5F332391F0482F439F040E51
:1008700040E0411D842F239F020E20E0211D492FBF
:10088000439F040E40E0411D942F112403C090E0CB
:1008900020E080E08083218392831F9108955F92FE
:1008A0006F927F928F929F92AF92BF92CF92DF9280
:1008B000EF92FF920F931F93CF93DF933C01FB01C5
:1008C000822EA32EC42F0617170750F4CE2DE42E28
:1008D000AD2CD32E8C2CC22E8F2FF801062F182F63
:1008E000912C8C2D90E0881999099695982F88273E
:1008F00097958795B12C2D2D30E02A193B09369517
:10090000322F222737952795D0E0F12CEC1AFD0ADB
:10091000F694FE2CEE24F794E794A8014E1B5F0B8F
:1009200019F0542E452F03C05524539440E0652DF3
:10093000742F0E9416216B01C901652D742F0E942E
:1009400016219B01C701652D742F0E941621CC0C26
:10095000DD1C220F331F660F771F982C8824BA2CBA
:10096000AA24DC2FCC27DF01AA0FBB1FAE0FBF1FAD
:10097000A60DB71D0E171F0780F09C921196BC9212
:1009800011971296DC9312978C0C9D1CA20EB31E2D
:10099000C60FD71F31961396EDCFDF91CF911F91E0
:1009A0000F91FF90EF90DF90CF90BF90AF909F900E
:1009B0008F907F906F905F9008952F923F924F920B
:1009C0005F926F927F928F92CF92DF92EF92FF921F
:1009D0000F931F93CF93DF93CDB7DEB7CC56D109DA
:1009E0000FB6F894DEBF0FBECDBF80913B028F5F84
:1009F00080933B022091390230913A022F5F3F4FA2
:100A000030933A02209339026AE00E940A21911140
:100A100005C08091B6028F5F8093B60283E00E948A
:100A20000E17892B09F055C00E9469196093BC010B
:100A30007093BD018093BE019093BF010091B801F6
:100A40001091B9012091BA013091BB01DC01CB01B9
:100A5000801B910BA20BB30B8D329140A105B10508
:100A6000C0F18091C001893020F48F5F8093C00174
:100A700002C01092C001E091C001F0E0EC5CFE4FBA
:100A800080818093F5050E944F1A82E691E00E94D2
:100A90001D14E091C001F0E0EC5CFE4F608170E05D
:100AA00080E090E04AE00E942F1484E891E00E94E8
:100AB0001D148091BC019091BD01A091BE01B09127
:100AC000BF018093B8019093B901A093BA01B0938C
:100AD000BB0184E00E940E17892B09F06AC00E94B6
:100AE00069196093C5017093C6018093C701909303
:100AF000C8010091C1011091C2012091C301309140
:100B0000C401DC01CB01801B910BA20BB30B8D3216
:100B10009140A105B10508F44CC011E01093030108
:100B200010923C0210923D0210923E0210923F023F
:100B3000109244021092450210924602109247020F
:100B4000109248021092490210924A0210924B02EF
:100B50008AE08093F5051092C0010E944F1A80919F
:100B600000018E3020F48F5F8093000102C010934B
:100B7000000187E891E00E941D146091000170E07F
:100B800080E090E04AE00E942F1484E891E00E9407
:100B90001D148091C5019091C601A091C701B0912B
:100BA000C8018093C1019093C201A093C301B09387
:100BB000C401809100018130D1F50E94CF02809163
:100BC0000301882381F00E94331A1092030185E704
:100BD00090E00E94CA1488E690E00E9470140E947F
:100BE000A80E0E9498140E94EE0E2B013C010E9458
:100BF000331AC090D805D090D905E090DA0520E0EE
:100C000030E040EC51E4C301B2010E94152320E022
:100C100030E040EC51E40E9445210E942822DC0192
:100C2000CB016E2DA6010E94BF0E0E944F1A80912B
:100C300000018230C1F580910301882381F00E9478
:100C4000331A1092030184EA90E00E94CA1487E9E3
:100C500090E00E9470140E94A80E0E9498140E94B6
:100C6000EE0E2B013C010E94D814C090D805D09004
:100C7000D905E090DA0520E030E040EC51E4C30112
:100C8000B2010E94152320E030E040EC51E40E94C4
:100C900045210E942822DC01CB016E2DA6010E9475
:100CA000BF0E0E944F1A80910001833009F053C09B
:100CB00080910301882381F00E94331A109203016E
:100CC0008FED90E00E94CA1482ED90E00E947014B3
:100CD0000E94A80E0E9498140E94EE0E6B017C01E7
:100CE0000E94331A20E030E040EC51E4C701B60125
:100CF0000E94152320E030E040EC51E40E944521A1
:100D00000E9428227B0107EF1FEFF801E853FF4FF5
:100D100034912091DA05622F639F060E60E0611D19
:100D200011245091D905539F050E50E0511D1124F7
:100D30004091D805439F040E40E0411D1124C70196
:100D4000800F911F0E94BF0E0F5F1F4F0A301105C9
:100D5000E1F60E944F1A80910001843009F062C0D0
:100D600080910301882381F00E94331A10920301BD
:100D700087E091E00E94CA148AEF90E00E9470140C
:100D80000E94A80E0E9498140E94EE0E20E030E00F
:100D900040EC51E40E94152320E030E040EC51E4A7
:100DA0000E9445210E942822660F771F072E000C03
:100DB000880B990B0E9460222B013C0100E010E09F
:100DC000FF24FA94B801012E000C880B990B0E94A5
:100DD000602220E030E040E452E40E94B62120E0AE
:100DE00030E04FE753E40E941523A30192010E94D3
:100DF00045210E942F226983FA82FB82BE016F5C2B
:100E00007F4FCE0101960E94A50349A95AA96BA95B
:100E1000C8010E94BF0E0F5F1F4F0033110591F6EE
:100E20000E944F1A80910001853029F40E94CF0260
:100E300080E00E94D11180910001863029F40E9447
:100E4000CF0281E00E94D11180910001873009F02A
:100E500007C180910301882381F00E94331A109208
:100E6000030182E391E00E94CA1485E291E00E94AE
:100E700070140E94A80E0E949814A9ECEA2EA1E01A
:100E8000FA2EB9EFCB2EB1E0DB2E87018DE0482E94
:100E9000512C612C712C0E944020A30192010E94D0
:100EA0009720F8014081242F30E02617370714F4EB
:100EB000108204C0842F861BF80180830F5F1F4FB0
:100EC000C016D10641F7E7EFF1E003E010E08081C2
:100ED000229190E0820F911D820F911DB8010E9416
:100EE00016216283EE16FF0691F70E9440202FEF35
:100EF00030E040E050E00E9497206837710581059E
:100F00009105FCF40E94402027E030E040E050E0F2
:100F10000E9497208B0107531E4FF801D0800E943A
:100F200040202FE530E040E050E00E949720DC01B7
:100F3000CB0180569F4FAF4FBF4F6D2D680FF8010B
:100F4000608300E010E0F70161917F0170E080E0D4
:100F500090E00E94602220E030E04FE753E40E94DE
:100F6000B62120E030E04FE353E40E9415232B012B
:100F70003C0120E030E0A9010E94102320E030E095
:100F800040E05FE387FD05C0C301B2010E94452137
:100F900004C0C301B2010E9444210E942822862F6E
:100FA000880F880F613820F04FEF5FEF682F08C07F
:100FB000613418F0482F5FEF02C040E0582F60E026
:100FC000C8010E94BF0E0F5F1F4F0033110509F0CB
:100FD000BACF02EA12E0F4E1FF2EF8018281938198
:100FE0008F32910508F01082F8012081222381F0D0
:100FF0003181830F911D93838283231B2083803350
:10100000910500F54FEF5FEF60E00E94BF0E1AC040
:101010000E94B2118230B0F488E10E94C711282FDB
:1010200030E0F80133832283FF2DF81B8F2F0E94BD
:10103000C7118C5FF801808381E00E94C7118E5F29
:10104000F80181830C5F1F4FF2E0063B1F0729F672
:101050000E944F1A6FE070E080E090E00E946C1BED
:1010600080910001883009F074C02FEFAB962FAF4C
:10107000AB97AC962FAFAC97AD962FAFAD9731E055
:10108000329F030E30E0311D1124A8961FAEA897A1
:10109000A9961FAEA997AA963FAFAA9754E628E251
:1010A000259F020E20E0211D112430E1359F030E03
:1010B00030E0311D112440E6459F040E40E0411D03
:1010C0001124A5964FAFA597A6963FAFA697A796D2
:1010D0002FAFA797A2961FAEA297A3961FAEA39776
:1010E000A4961FAEA4978E0106591F4F9E01295941
:1010F0003F4FAE014C595F4FBE016F597F4FCE013C
:10110000C1960E94AB1BBE016F5C7F4FCE01019662
:101110000E94361C86EE89AB87E48AAB88EC8BABE9
:10112000BE016F597F4FCE01C1960E94A503BE013B
:101130006F5F7F4FCE01C1960E94361CA4964DADC5
:101140005EAD6FADA49700E021E0CE01C1960E9494
:10115000981780910001893041F58AEE91E0DE0117
:1011600011967E0121E3E20EF11C3A2F2B2FFC0198
:1011700045915591659174916C9311965C9311977B
:1011800012964C93129704961396EA16FB0679F77B
:10119000632F722FC7010E94361C01E020E04FEF41
:1011A0005FEF6FEFC7010E949817809100018A30AE
:1011B00009F016C180910301882381F00E94331A3F
:1011C0001092030185E691E00E94CA1488E591E03F
:1011D0000E9470140E94A80E0E94981480912A0206
:1011E0008F3021F08F5F80932A0207C010922A026D
:1011F000809129028F5F809329020091290209833F
:101200001FEF1A8380EC8B83BE0166597F4FCE019E
:1012100001960E94A503098380E88A831B83BE018F
:1012200069597F4FCE0101960E94A503A2961FAF78
:10123000A297A3961FAFA397A4961FAFA497A596B6
:101240001FAEA597A6961FAEA697A7961FAEA79707
:101250008E010F591F4F9E0129593F4FAE0146592C
:101260005F4FBE016C597F4FCE0101960E94AB1BB0
:10127000BE016F5F7F4FCE01C1960E94361C0E9457
:1012800040202091010130910201620F731F709381
:1012900002016093010109EF11E0E9E2CE2EE2E0E4
:1012A000DE2E780180E10E94C711F7012081382FDE
:1012B000231B08F420E021937F01CE16DF0691F76F
:1012C000E7E2F2E073E0E72EF12C8081229190E0DA
:1012D000820F911D820F911DB7010E94162162831A
:1012E0000E171F0791F70E94B211883790F487E01C
:1012F0000E94C711E82EF12C8FE50E94C71180567D
:10130000F701E750FE4F2081382F230F08F42FEF0D
:101310002083E12CF12C64E6D62EF80161918F0137
:101320002D2D629F060E60E0611D1124CE01C19635
:101330000E94F61BAB01682FC7010E94BF0E3FEF52
:10134000E31AF30A80E3E816F10439F702EA12E03F
:1013500046EBE42E42E0F42E54E1D52EF8018281D2
:1013600093818F32910508F01082F80120812223A9
:1013700081F03181830F911D93838283231B20830E
:101380008033910500F54FEF5FEF6FEF0E94BF0EC6
:101390001AC00E94B2118230B0F488E10E94C711D5
:1013A000282F30E0F80133832283FD2DF81B8F2F87
:1013B0000E94C7118C5FF801808381E00E94C711F1
:1013C0008E5FF80181830C5F1F4FE016F10631F646
:1013D0000E944F1A60E170E080E090E00E946C1B78
:1013E000809100018B3039F40E94CF026FEF7FEFC4
:1013F0008FEF0E945C17809100018C3051F40E94A5
:10140000CF026091D8057091D9058091DA050E94CC
:101410005C17809100018D3009F024C10E94CF0239
:101420006090D8057090D9058090DA05809103010D
:10143000882301F10E94331A109233021092340271
:10144000109235021092360210920301109232026D
:10145000109231021092300210922F028DE991E029
:101460000E94CA1480E991E00E9470140E94A80EA4
:101470000E9498140E94691970932E0260932D02A5
:1014800020912B0230912C02621B730B80E090E0C4
:101490000E945E2220E030E44CE956E40E94B6212E
:1014A0006B017C0120E030E0A9010E94B12187FDA1
:1014B00013C020E030E040E85FE3C701B6010E94BE
:1014C0001023181674F0A701960160E070E080E820
:1014D0009FE30E94442108C060E070E080E89FE341
:1014E00003C060E070E0CB01209133023091340200
:1014F00040913502509136020E9415236B017C0108
:101500000E947D032091BD043091BE044091BF0430
:101510005091C0040E9444211B012C01E89457F80B
:1015200020E030E040E85FE3C201B1010E941023F7
:1015300087FD0AC01092320210923102212C312C08
:1015400030E8432E3FE3532EA2019101C701B601BB
:101550000E94B121181684F0209233023092340296
:10156000409235025092360280912D0290912E02C7
:1015700090932C0280932B020E94691920912F02D4
:1015800030913002AB01421B530B2091310230915C
:1015900032022417350708F065C07093300260935B
:1015A0002F0280E90E94C71190E08C01000F111FEB
:1015B000800F911F8C0109541D4FF80160827182C8
:1015C00082820E944F1A6AE070E080E090E00E9400
:1015D0006C1BF8011082118212820E944F1A20E0C7
:1015E00030E0A901C701B6010E94B12187FD1BC0EF
:1015F00020E030E040E85FE3C701B6010E9410231D
:101600001816A4F0A701960160E070E080E89FE35F
:101610000E94442120E030E842EA54E40E9415236D
:101620000E942F2205C064E175E002C060E070E016
:10163000209101013091020185E098E0289FD001BE
:10164000299FB00D389FB00D1124A75EB94CB093FF
:101650000201A09301019B010E94EB2090933202B2
:1016600080933102809100018E3009F061C0809139
:1016700003018823A1F00E94331A1092030188EC21
:1016800091E00E94CA148BEB91E00E9470140E94BA
:10169000A80E0E949814109238021092370200E0AF
:1016A00010E0FF24FA94609137027091380280E0D4
:1016B00090E00E945E222B013C01B801012E000C3B
:1016C000880B990B0E94602220E030E040E452E455
:1016D0000E94B62120E030E04FE753E40E9415233A
:1016E0009B01AC01C301B2010E9444210E942F2240
:1016F0006983FA82FB82BE016F5C7F4FCE01019647
:101700000E94A50349A95AA96BA9C8010E94BF0E4E
:101710000F5F1F4F0033110531F60E944F1A809161
:1017200037029091380201969093380280933702E5
:10173000C459DF4F0FB6F894DEBF0FBECDBFDF91A7
:10174000CF911F910F91FF90EF90DF90CF908F90EE
:101750007F906F905F904F903F902F900895FC0185
:10176000918D228D892F90E0805C9F4F821B910983
:101770008F739927089580E090E0892B29F00E94CB
:10178000F01881110C940000089585ED8093BC0041
:101790008091BC0084FDFCCF109208050895409113
:1017A0007A02262F30E0240F311D21323105DCF47E
:1017B000209108052430C9F4FC0180E090E08617F0
:1017C00058F430917A022191DC01A65ABD4FA30F43
:1017D000B11D2C930196F3CF80917A02680F60932C
:1017E0007A0280E0089581E0089582E008950895E6
:1017F00008950895E091680480916704E81730F433
:10180000F0E0E759FB4F808190E008958FEF9FEF64
:1018100008959091680480916704981750F4E92F17
:10182000F0E0E759FB4F208130E09F5F9093680420
:1018300002C02FEF3FEFC90108958091670490E047
:1018400020916804821B91090895CF92DF92EF9254
:10185000FF920F931F93CF93DF937C01CB018A01FB
:1018600020910905222389F0EB016B01C40ED51EDE
:10187000CC15DD0569F06991D701ED91FC910190DE
:10188000F081E02DC7010995F3CF642F0E94CF0BA3
:10189000C801DF91CF911F910F91FF90EF90DF90E2
:1018A000CF900895CF93DF931F92CDB7DEB76983B2
:1018B000209109052223D1F020912C05203240F0FF
:1018C00021E030E0FC013383228380E090E015C00A
:1018D00080910A05E82FF0E0E55FFA4F9981908347
:1018E0008F5F80930A0580932C0505C061E0CE01CF
:1018F00001960E94CF0B81E090E00F90DF91CF9195
:101900000895089580E090E008950F931F93CF937A
:10191000DF938C01EB01DC011F968D919C91509718
:10192000009739F0DC01ED91FC910190F081E02D00
:1019300009958CB580658CBD8CB58C7F8CBD8DB5C3
:1019400081608DBD6E857D85AC858091A1028823E7
:1019500029F01092A1020DB407FEFDCF1EBC10921B
:10196000A1020DB407FEFDCF1EBC1092A1020DB462
:1019700007FEFDCF1EBC1092A1020DB407FEFDCFE5
:101980001EBC81E08093A102BFEF51E08C819D815C
:10199000181619060CF04EC0E881F98188899989DA
:1019A000E80FF91F20813A2F239F020E20E0211D0E
:1019B00011243181379F030E30E0311D1124428103
:1019C000469F040E40E0411D11241092A1020DB467
:1019D00007FEFDCFBEBD1092A1020DB407FEFDCFE4
:1019E0004EBD1092A1020DB407FEFDCF3EBD109278
:1019F000A1020DB407FEFDCF2EBD5093A102898533
:101A00009E81891B8E838A859F81891B8F838B850D
:101A10009885891B88872F8588819981820F911DE0
:101A200027FD9A95998388838C819D8101979D8359
:101A30008C83ACCF8A819B8197FD4F9625E095954D
:101A400087952A95E1F73FEF21E04091A1024423D9
:101A500029F01092A1020DB407FEFDCF3EBD1092F9
:101A6000A1020DB407FEFDCF1EBC1092A1020DB461
:101A700007FEFDCF1EBC1092A1020DB407FEFDCFE4
:101A80001EBC2093A102019700F71092A1020DB491
:101A900007FEFDCFD8011F968D919C915097DF9145
:101AA000CF911F910F910C948B140F960C94EB1601
:101AB000FC01848DDF01A80FB11DA35ABF4F2C91EB
:101AC000848D90E001968F739927848FA689B789BA
:101AD0002C93A089B1898C91837080648C93938DB1
:101AE000848D981306C00288F389E02D80818F7D54
:101AF000808308951F920F920FB60F9211242F9397
:101B00003F934F935F936F937F938F939F93AF9385
:101B1000BF93EF93FF938091B900887F803609F4DB
:101B20009CC068F5883209F45BC090F4803109F4F8
:101B300054C038F4882309F4F6C0883009F44DC045
:101B4000F6C0883109F44CC0803209F45DC0EFC0A2
:101B5000803409F468C048F4803309F455C08833F0
:101B600009F0E5C080930605D8C0803509F44FC060
:101B7000883509F45DC0883409F0D9C0D6C08839E9
:101B800009F4C7C0A8F4883709F467C038F4883668
:101B900009F463C0803709F460C0C9C0883809F40B
:101BA000B8C0803909F45FC0803809F0C0C05BC09C
:101BB000803B09F486C038F4803A09F466C0883A5C
:101BC00009F47FC0B4C0803C09F4A7C0883C09F484
:101BD000A4C0883B09F48AC0AAC08091E30410C065
:101BE0009091050580910405981770F5E091050521
:101BF00081E08E0F80930505F0E0EC51FB4F808172
:101C00008093BB0085EC86C0809306058EC0E09172
:101C1000050581E08E0F809305058091BB00F0E003
:101C2000EC51FB4F808390910505809104056EC0B7
:101C3000E091050581E08E0F809305058091BB0042
:101C4000F0E0EC51FB4F80838091070581116DC05E
:101C500081E08093E20484EA61C083E08093080518
:101C600010929C02CFCF80919C02803208F051C02C
:101C7000E0919C0281E08E0F80939C028091BB00DA
:101C8000F0E0E458FD4F8083BDCF85EC8093BC002D
:101C90001092080580919C02803230F4E0919C0201
:101CA000F0E0E458FD4F108260919C0270E0E091FA
:101CB000B904F091BA048CE792E0099510929C0265
:101CC00036C084E08093080510927B0210927A025D
:101CD000E091BB04F091BC04099580917A028111D6
:101CE00005C081E080937A0210925A02E0917B0253
:101CF00081E08E0F80937B02F0E0E65AFD4F8081F9
:101D00008093BB0090917B0280917A02981708F42F
:101D100079CF85E88093BC000AC085EC8093BC0035
:101D20001092080504C0109206050E94C50BFF9191
:101D3000EF91BF91AF919F918F917F916F915F9143
:101D40004F913F912F910F900FBE0F901F901895BC
:101D5000CF93DF9300D0CDB7DEB720910C06309142
:101D60000D062115310511F420E136E0CE01019672
:101D7000821B930B0F900F90DF91CF910895DC01A0
:101D80008033910550F52FE2281B30E0F901EE0F6A
:101D9000FF1F2E0F3F1FF901E954FD4F4083518370
:101DA000628320E32A0F30E0F901EE0FFF1F2E0FB0
:101DB0003F1FF901E954FD4F4083518362838FE84F
:101DC0008A1B90E0FC01EE0FFF1F8E0F9F1FFC018E
:101DD000E954FD4F40835183628308954F925F928F
:101DE0006F927F928F929F92AF92BF92CF92DF922B
:101DF000EF92FF92CF93DF93CDB7DEB764970FB624
:101E0000F894DEBF0FBECDBF80915902882309F43C
:101E10004AC1109248021092490210924A0210924E
:101E20004B02109244021092450210924602109208
:101E30004702109258021092570260915502709119
:101E4000560271956195710980E090E00E945E22D2
:101E50006B017C0160935102709352028093530294
:101E6000909354020E946919709356026093550230
:101E70002AE037ED43E25CE3C701B6010E94152377
:101E800060934D0270934E0280934F0290935002E4
:101E90000E947D03C0904802D0904902E0904A021F
:101EA000F0904B02409044025090450260904602F0
:101EB0007090470223EC35EF4CE151E40E9415236A
:101EC00020E030E040E850E40E94152369837A83E3
:101ED0008B839C832AE939E949E95EEBC301B201AE
:101EE0000E941523A70196010E94442129813A816D
:101EF0004B815C810E9445216D837E838F8398870F
:101F000020E030E040E05FE30E941523A30192014E
:101F10000E9445212AE939E949E95EEB0E9415232F
:101F2000A70196010E94442129813A814B815C815D
:101F30000E9445214B015C0120E030E040E05FE37E
:101F40000E941523A30192010E9445212AE939E943
:101F500049E95EEB0E941523A70196010E944421E6
:101F600029813A814B815C810E9445216D877E8762
:101F70008F87988B80914D0290914E02A0914F02D5
:101F8000B091500289879A87AB87BC879C01AD01CD
:101F9000C301B2010E941523A70196010E944521A9
:101FA00060933C0270933D0280933E0290933F0207
:101FB00020915702309158023093560220935502D7
:101FC000609348027093490280934A0290934B02B7
:101FD00020E030E040EC50E46D817E818F81988577
:101FE0000E94B6216D837E838F83988720E030E046
:101FF00040E450E4C501B4010E94B6219B01AC014C
:102000006D817E818F8198850E9445214B015C0105
:1020100020E030E040E450E46D857E858F8598892E
:102020000E94B6219B01AC01C501B4010E9445216B
:102030004B015C012D853E854F855889C301B20156
:102040000E9445212AE939E949E95EEB0E941523FE
:10205000A70196010E94442129813A814B815C812C
:102060000E94452120E030E040EC50E40E94B6217F
:102070009B01AC01C501B4010E94452129853A8527
:102080004B855C850E941523A30192010E94452186
:1020900060934402709345028093460290934702F6
:1020A0001092590236C10E946919709358026093C8
:1020B00057022091550230915602621B730B80E04B
:1020C00090E00E945E2260935102709352028093CE
:1020D0005302909354022AE037ED43E25CE30E94FE
:1020E000152360934D0270934E0280934F0290939C
:1020F00050020E947D03C0904802D0904902E090B7
:102100004A02F0904B024090440250904502609089
:1021100046027090470223EC35EF4CE151E40E94F7
:10212000152320E030E040E850E40E941523698345
:102130007A838B839C832AE939E949E95EEBC30101
:10214000B2010E941523A70196010E944421298112
:102150003A814B815C810E9445216D837E838F8310
:10216000988720E030E040E05FE30E941523A30160
:1021700092010E9445212AE939E949E95EEB0E9472
:102180001523A70196010E94442129813A814B81A0
:102190005C810E9445214B015C0120E030E040E081
:1021A0005FE30E941523A30192010E9445212AE9C1
:1021B00039E949E95EEB0E941523A70196010E94C7
:1021C000442129813A814B815C810E9445216D87A0
:1021D0007E878F87988B80914D0290914E02A091BF
:1021E0004F02B091500289879A87AB87BC879C01C8
:1021F000AD01C301B2010E941523A70196010E94FF
:102200004521698B7A8B8B8B9C8B60933C027093FE
:102210003D0280933E0290933F0220E030E040EC8C
:1022200050E46D817E818F8198850E94B6216D83F7
:102230007E838F83988720E030E040E450E4C5013E
:10224000B4010E94B6219B01AC016D817E818F811A
:1022500098850E9445214B015C0120E030E040E47C
:1022600050E46D857E858F8598890E94B6219B01FB
:10227000AC01C501B4010E9445214B015C012D85D3
:102280003E854F855889C301B2010E9445212AE944
:1022900039E949E95EEB0E941523A70196010E94E6
:1022A000442129813A814B815C810E94452120E0B3
:1022B00030E040EC50E40E94B6219B01AC01C50126
:1022C000B4010E94452129853A854B855C850E9491
:1022D0001523A30192010E9445216093440270934B
:1022E0004502809346029093470289899A89AB8977
:1022F000BC898093480290934902A0934A02B0930C
:102300004B0280915702909158029093560280930D
:10231000550223EC35EF4CE152E460913C027091A0
:102320003D0280913E0290913F020E94B62120E042
:1023300030E040E85FE30E94452164960FB6F894D0
:10234000DEBF0FBECDBFDF91CF91FF90EF90DF904A
:10235000CF90BF90AF909F908F907F906F905F9045
:102360004F900895409101015091020125E038E01D
:10237000429FC001439F900D529F900D1124875E94
:10238000994C9093020180930101890F0895CF9396
:10239000C82F0E94B2118C9FC0011124892FCF91A8
:1023A00008956F927F928F92CF92DF92EF92FF9279
:1023B0001F93CF93DF9300D01F92CDB7DEB7182FB6
:1023C00080910301882309F451C00E94331A1092AE
:1023D000030187E392E00E94CA148AE292E00E941D
:1023E00070140E94A80E0E94981480E090E0A0EC67
:1023F000B1E48093DB059093DC05A093DD05B093F9
:10240000DE0580E090E0A0E8BFE38093DF059093D5
:10241000E005A093E105B093E2051092E305109268
:10242000E4051092E5051092E60581E090E09093B6
:10243000EA058093E9059093E8058093E7058CED24
:1024400089838FEF8A838B836BEE75E0CE010196D3
:102450000E94A5038BED95E00E94F6141092E3050F
:102460001092E4051092E5051092E605111102C0E4
:102470000E94331A8BED95E00E94F614C090DB05A4
:10248000D090DC05E090DD05F090DE0520E030E046
:10249000A901C701B6010E94B12187FF19C080912F
:1024A000E3059091E405A091E505B091E605BC0136
:1024B000CD019F772DEC3CEC4CE45FE30E941523AB
:1024C0006093E3057093E4058093E5059093E6053A
:1024D0006090EB057090EC058090ED05C701B601AA
:1024E0000E942822DC01CB01682DA3010E94BF0EAF
:1024F00011110E94D8140E944F1A0F900F900F9044
:10250000DF91CF911F91FF90EF90DF90CF908F9050
:102510007F906F9008950F931F93CF93DF93209137
:102520004C022F5F322F377030934C0220FF02C0D5
:1025300020E801C020E031FD2064347009F0206201
:10254000205FFC01EC01239600E011E06485662326
:1025500031F070E0C8010E9416216F5F01C060E099
:102560006187322F369F030E30E0311D1124311167
:1025700002C0168202C031503683662311F06150CA
:1025800061873196CE17DF0709F7DF91CF911F9151
:102590000F910895833081F028F4813099F08230D2
:1025A000A1F008958730A9F08830B9F08430D1F4D3
:1025B000809180008F7D03C0809180008F77809311
:1025C0008000089584B58F7702C084B58F7D84BD67
:1025D00008958091B0008F7703C08091B0008F7D07
:1025E0008093B00008952F923F924F925F926F9226
:1025F0007F928F929F92AF92BF92CF92DF92EF9293
:10260000FF920F931F93CF93DF93CDB7DEB72A9737
:102610000FB6F894DEBF0FBECDBFD82EC62E4983AD
:102620003D832C830E9469192B013C012981E22EF4
:10263000F12C3D2D330F3B83203210F4170103C0E2
:1026400080E2282E312CA12CB12C812C912C1A86C1
:10265000C801A0E0B0E08E839F83A887B9878E145D
:102660009F040CF095C091E090930905D0922B0542
:1026700010920A0510922C05E091CC05F091CD0541
:102680000190F081E02D6C2D8CEC95E0099581E0B6
:102690000E944E1CA1E0A0930905D0922B05109238
:1026A0000A0510922C05809108058111FCCFC70105
:1026B0008A0D9B1D8132910514F080E290E08132F9
:1026C00008F080E2B1E0B0930805B0930705EFEFA2
:1026D000E0930605109205059FEF980F909304056F
:1026E000B093E3049091E304FB819F2B9093E30468
:1026F0009091E204913071F41092E2049091E3041D
:102700009093BB009091BC0093FDF8CF25EC2093F3
:10271000BC0003C035EE3093BC00909108059130A9
:10272000E1F390910505981710F480910505E4EE0A
:10273000F4E0A9E6B4E090E0981721F021912D9300
:102740009F5FFACF1092680490936704E091CC05E4
:10275000F091CD050084F185E02D8CEC95E0099594
:10276000892B09F44BC00115110571F10E946919FB
:10277000DC01CB0184199509A609B7092E813F8197
:102780004885598582179307A407B507E8F036C036
:1027900001151105C1F10E946919DC01CB018419F1
:1027A0009509A609B70920E030E080179107A20734
:1027B000B30748F13A85832F330F990B8E159F0588
:1027C00014F54FEF4A871FC08C819D81AA858A0F1F
:1027D000911DA7FD9A959A838983E091CC05F0918C
:1027E000CD050284F385E02D8CEC95E00995E98117
:1027F000FA818083FA85FF5FFA87A8CF820C931C49
:10280000A218B3082CCF8A852A960FB6F894DEBF9B
:102810000FBECDBFDF91CF911F910F91FF90EF9031
:10282000DF90CF90BF90AF909F908F907F906F90F0
:102830005F904F903F902F900895009769F0FC01B2
:1028400001900020E9F73197AF01481B590BBC01FB
:102850008FE295E00C94931880E090E008958F92B9
:102860009F92AF92BF920F931F93CF93DF93CDB7F9
:10287000DEB7A1970FB6F894DEBF0FBECDBF19A289
:10288000423008F44AE08E010F5D1F4F842E912CD8
:10289000A12CB12CA50194010E94C920E62FB901F9
:1028A000CA0101501109EA3014F4E05D01C0E95C8D
:1028B000D801EC93232B242B252B61F7C8010E9410
:1028C0001D14A1960FB6F894DEBF0FBECDBFDF91E9
:1028D000CF911F910F91BF90AF909F908F900895CF
:1028E0000F931F93CF93DF938C01C0E0D0E0F801EA
:1028F000EC0FFD1F6491662341F08FE295E00E948A
:10290000FA18892B11F02196F2CFCE01DF91CF91E9
:102910001F910F910895009739F0DC01ED91FC9122
:102920000280F381E02D09958CB58F7A8CBD0895D6
:10293000CF92DF92EF92FF92CF93DF936C01990FCA
:10294000EE08FF08F7FE13C06DE28FE295E00E94EB
:10295000FA18EC0166277727CB016C197D098E09DF
:102960009F094AE00E942F14C80FD91F06C04AE0F1
:10297000C701B6010E942F14EC0184E891E00E9487
:102980001D148C0F9D1FDF91CF91FF90EF90DF9072
:10299000CF900895CF93DF930E947014EC0184E8E8
:1029A00091E00E941D148C0F9D1FDF91CF9108951F
:1029B000E7EBF2E030EF2081239F020E20E0211DA3
:1029C000112420832181239F020E20E0211D112448
:1029D00021832281239F020E20E0211D11242283C6
:1029E000339684E0E736F80731F708954F925F9207
:1029F0006F927F928F929F92AF92BF92CF92DF920F
:102A0000EF92FF92CF93DF93CDB7DEB76A970FB601
:102A1000F894DEBF0FBECDBF9A8F898F0E947D03D1
:102A20002BE734E940EB54E40E9415236D837E8349
:102A30008F8398870E94691969877A878B879C871B
:102A4000E985FA85A98DBA8D1F96FC93EE931E97A2
:102A50001C968D919C911D97BF01681B790B80E09E
:102A600090E00E945E222FE632E143E85AE30E94A2
:102A700015236D877E878F87988BA98DBA8D1496C5
:102A80008D919D910D90BC91A02D89839A83AB83EC
:102A9000BC83E98DFA8DC084D184E284F3842DEC6B
:102AA0003CEC4CE45EEBC701B6010E941523298182
:102AB0003A814B815C810E94B6212D813E814F81FC
:102AC00058850E9445212B013C0120E030E040E088
:102AD0005FE30E941523A70196010E9445212DEC7A
:102AE0003CEC4CE45EEB0E94152329813A814B813A
:102AF0005C810E94B6212D813E814F8158850E94C4
:102B000045214B015C0120E030E040E05FE30E94A2
:102B10001523A70196010E9445212DEC3CEC4CE4C5
:102B20005EEB0E94152329813A814B815C810E94D2
:102B3000B6212D813E814F8158850E944521698BA8
:102B40007A8B8B8B9C8BA70196016D857E858F85FB
:102B500098890E941523A98DBA8D2D913D914D9193
:102B60005C910E9445216D8B7E8B8F8B988F20E02E
:102B700030E040EC50E4C301B2010E94B6212B01C9
:102B80003C0120E030E040E450E4C501B4010E9483
:102B9000B6219B01AC01C301B2010E9445214B014A
:102BA0005C0120E030E040E450E469897A898B8957
:102BB0009C890E94B6219B01AC01C501B4010E9411
:102BC00045214B015C0129893A894B895C89C70100
:102BD000B6010E9445212DEC3CEC4CE45EEB0E94DA
:102BE000152329813A814B815C810E94B6212D8178
:102BF0003E814F8158850E94452120E030E040EC25
:102C000050E40E94B6219B01AC01C501B4010E94B1
:102C100045212D853E854F8558890E941523A701A2
:102C200096010E944521E98DFA8D60877187828720
:102C300093878D899E89AF89B88D80839183A28384
:102C4000B38389859A85958784876A960FB6F894A9
:102C5000DEBF0FBECDBFDF91CF91FF90EF90DF9031
:102C6000CF90BF90AF909F908F907F906F905F902C
:102C70004F900895CF93DF93EA0191E09093090577
:102C800080932B0510920A0510922C05E091CC053B
:102C9000F091CD050190F081E02D8CEC95E0099547
:102CA000E091CC05F091CD050190F081E02D688197
:102CB0008CEC95E0099581E00E944E1C91E0811119
:102CC00090E0892FDF91CF910895DF92EF92FF92EC
:102CD0000F931F93CF93DF9300D0CDB7DEB7F82EBD
:102CE000E62ED42E08EE13E09E012E5F3F4F41E00A
:102CF0006DE20E94F3129A8121E030E001C0220FC0
:102D0000EA94EAF7DD2019F0892F822B03C0822F85
:102D1000809589238A838983AE014F5F5F4F6DE27F
:102D20008F2D0E943A160F900F90DF91CF911F9137
:102D30000F91FF90EF90DF900895CF93DF93282FAE
:102D400030E0F901E256FD4F8491F901E657FD4F5D
:102D5000D491F901EA58FD4FC491CC2389F0811137
:102D60000E94CA12EC2FF0E0EE0FFF1FE459FD4F56
:102D7000A591B4918FB7F894EC91ED2BEC938FBFA4
:102D8000DF91CF910895CF93DF9390E0FC01E65758
:102D9000FD4F2491FC01EA58FD4F84918823C1F036
:102DA00090E0880F991FFC01EE59FD4FC591D49119
:102DB000FC01E459FD4FA591B4919FB7F894888127
:102DC000E22FE0958E2388838C91E823EC939FBFBC
:102DD000DF91CF910895CF93DF931F92CDB7DEB7E8
:102DE000FC01239A259A229A2A989CB590659CBD4D
:102DF0009CB59C7F9CBD8DB589838EB58983898167
:102E00009DB591609DBD1EBC1092A10280819181F3
:102E10000E948B140F90DF91CF910895CF93DF9391
:102E2000282F30E0F901E256FD4F8491F901E65771
:102E3000FD4FD491F901EA58FD4FC491CC2391F094
:102E400081110E94CA12EC2FF0E0EE0FFF1FE85A2A
:102E5000FD4FA591B491EC91ED2381E090E021F438
:102E600080E002C080E090E0DF91CF9108953FB70D
:102E7000F89480919D0290919E02A0919F02B09142
:102E8000A00226B5A89B05C02F3F19F00196A11DF1
:102E9000B11D3FBFBA2FA92F982F8827820F911DF0
:102EA000A11DB11DBC01CD0142E0660F771F881F37
:102EB000991F4A95D1F70895CF92DF92EF92CF9361
:102EC000DF936B01E82E80910301882381F00E943B
:102ED000331A1092030180EF92E00E94CA1483EE2D
:102EE00092E00E9470140E94A80E0E94981480E93B
:102EF0000E94C71190E0EC01CC0FDD1F8C0F9D1FCD
:102F0000EC01C954DD4FC882D982EA820E944F1A6F
:102F10006AE070E080E090E00E946C1B18821982E9
:102F20001A82DF91CF91EF90DF90CF900C944F1ADF
:102F30006F927F928F92CF92DF92EF92FF920F93D8
:102F40001F93CF93DF936C013A01862E122F80914D
:102F50000301882381F00E94331A109203018FEB42
:102F600092E00E94CA1482EB92E00E9470140E94C8
:102F7000A80E0E9498140E944020209101013091D7
:102F80000201620F731F7093020160930101C9E88F
:102F9000D4E07E0180E10E94C711F7012081382F23
:102FA000231B08F420E021937F01F9EBEF16F4E0F6
:102FB000FF0681F7E7EBF4E023E030E08081429107
:102FC00090E0840F911D840F911DB9010E9416217C
:102FD0006283CE17DF0791F70E94B211883790F411
:102FE00087E00E94C711E82EF12C8FE50E94C711DF
:102FF0008056F701E757FB4F2081382F230F08F445
:103000002FEF2083E12CF12C6881112331F024E68D
:10301000629F060E60E0611D1124002319F080916B
:10302000B60201C080E0982F86FD9095E92FEF73DE
:103030009F7086FD9F5FE695E695E695E670F0E069
:10304000E65FFE4F2181299F302D212D11243295DD
:103050003F702295207F322B9081930F87FD02C015
:10306000892F02C0892F81956058680FC6010E9480
:10307000F61BAB01682FC7010E94BF0E3FEFE31A9A
:10308000F30A219680E3E816F10409F0BDCFC2EA05
:10309000D2E006EB12E084E1F82E8A819B818F3228
:1030A000910508F018822881222379F03981830F55
:1030B000911D9B838A83231B288380339105E0F431
:1030C000682DA3010E94BF0E17C00E94B21182306A
:1030D00098F488E10E94C711282F30E03B832A83AF
:1030E0009F2D981B892F0E94C7118C5F888381E0D8
:1030F0000E94C7118E5F898324960C171D0769F6FD
:103100000E944F1A60E170E080E090E0DF91CF9183
:103110001F910F91FF90EF90DF90CF908F907F9055
:103120006F900C946C1BCF92DF92EF92FF920F93F3
:103130001F93CF93DF936C017A018B01C0E0D0E045
:10314000CE15DF0581F0D8016D918D01D601ED918D
:10315000FC910190F081E02DC6010995892B11F0B9
:103160002196EECF7E01C701DF91CF911F910F9184
:10317000FF90EF90DF90CF900895FC01538D448D28
:10318000252F30E0842F90E0821B930B541710F012
:10319000CF96089501970895FC01918D828D98171F
:1031A00061F0828DDF01A80FB11D5D968C91928D2B
:1031B0009F5F9F73928F90E008958FEF9FEF089528
:1031C000FC01918D828D981731F0828DE80FF11DF1
:1031D000858D90E008958FEF9FEF08950E948723DB
:1031E0008FE295E00E94AF0B21E0892B09F420E0EB
:1031F000822F0895EF92FF920F931F93CF93DF9347
:10320000EC0181E0888F9B8D8C8D981305C0E88937
:10321000F989808185FD26C0F62E0B8D10E00F5FA9
:103220001F4F0F731127E02E8C8DE8120CC00FB6C4
:1032300007FCFACFE889F989808185FFF5CFCE01B7
:103240000E94580DF1CF8B8DFE01E80FF11DE35A5E
:10325000FF4FF0829FB7F8940B8FEA89FB8980813A
:1032600080620AC09FB7F894EE89FF896083E8897D
:10327000F98980818370806480839FBF81E090E0C2
:10328000DF91CF911F910F91FF90EF900895CF9311
:10329000DF93EC01888D8823C9F0EA89FB8980815E
:1032A00085FD05C0A889B9898C9186FD0FC00FB630
:1032B00007FCF5CF808185FFF2CFA889B9898C9171
:1032C00085FFEDCFCE010E94580DE7CFDF91CF9162
:1032D00008952FB7F8946091DE047091DF04809117
:1032E000E0049091E1042FBF08951F920F920FB652
:1032F0000F9211242F933F938F939F93AF93BF937C
:103300008091DE049091DF04A091E004B091E1048B
:103310003091DD0423E0230F2D3720F40196A11D09
:10332000B11D05C026E8230F0296A11DB11D2093F3
:10333000DD048093DE049093DF04A093E004B09357
:10334000E10480919D0290919E02A0919F02B09114
:10335000A0020196A11DB11D80939D0290939E0233
:10336000A0939F02B093A002BF91AF919F918F91C4
:103370003F912F910F900FBE0F901F9018951F92A5
:103380000F920FB60F9211242F933F934F935F9399
:103390006F937F938F939F93AF93BF93EF93FF931D
:1033A0008FE295E00E94580DFF91EF91BF91AF9190
:1033B0009F918F917F916F915F914F913F912F914D
:1033C0000F900FBE0F901F9018951F920F920FB67F
:1033D0000F9211242F938F939F93EF93FF93E0917C
:1033E0003F05F09140058081E0914505F09146054B
:1033F00082FD12C09081809148058F5F8F7320916C
:103400004905821751F0E0914805F0E0E15DFA4F7F
:10341000958F8093480501C08081FF91EF919F9126
:103420008F912F910F900FBE0F901F90189520E055
:10343000DC0160FF03C001C02D932D936250E0F7C3
:103440007040D0F7089520E330E0FB01DC0120FF5D
:1034500005C002C001900D9201900D922250D0F74C
:103460003040C0F70895CF93DF93C0912D05D091E0
:103470002E05209789F08A819B81009749F06D8500
:103480007E859B01220F331F620F731F0E94171A44
:103490000C80DD81C02DEDCFDF91CF9108953F925B
:1034A0004F925F926F927F928F929F92AF92BF9254
:1034B000CF92DF92EF92FF920F931F93CF93DF9300
:1034C00000D01F92CDB7DEB7D090F5058091F805FA
:1034D0009091F905A091FA05B091FB05892B8A2BF3
:1034E0008B2BE9F00E94371700910806109109060E
:1034F00020910A0630910B06DC01CB01801B910B59
:10350000A20BB30B0091F8051091F9052091FA0573
:103510003091FB0580179107A207B307B8F20E940C
:103520003717609308067093090680930A069093F4
:103530000B06E0910006F0910106309759F040919A
:10354000FC055091FD056091FE057091FF058D2DE4
:103550000995D82EE0902D05F0902E054D2C512C7C
:10356000612C712CE114F10409F45EC0D7011C96A2
:10357000CC901C978091F6059091F70584369105C3
:1035800010F41C961C92D701ED91FC9182809380DF
:1035900019821A821B82D11014C009811A812B81D1
:1035A000F7014585568562817381C701F40109954C
:1035B000D7011C96CC921C971496ED90FC90159711
:1035C000D1CFF70136968E010F5F1F4F5701B9E03B
:1035D000AB0EB11C2191222309F132803320F1F08E
:1035E000822F90E0A0E0B0E09C01AD012F5F3F4F43
:1035F0004F4F5F4FC301B2010E94FA209B01AC0103
:10360000832D90E0A0E0B0E0BC01CD016F5F7F4F63
:103610008F4F9F4F0E94FA20D8018C930F5F1F4F4E
:10362000EA15FB05B9F6B9CF809106069091070619
:103630008C010F5F1F4F10930706009306064997F2
:10364000B4F10E946919C0900206D0900306E09080
:103650000406F09005069B01AC012C193D094E09AA
:103660005F0921F421E030E040E050E088EE93E093
:10367000089FB001099F700D189F700D1124072E2F
:10368000000C880B990B0E94C9203093F7052093FA
:10369000F60510920706109206060E9469196093BB
:1036A00002067093030680930406909305060F901C
:1036B0000F900F90DF91CF911F910F91FF90EF909E
:1036C000DF90CF90BF90AF909F908F907F906F9042
:1036D0005F904F903F9008954F925F926F927F92CC
:1036E0008F929F92AF92BF92CF92DF92EF92FF9212
:1036F0002B013C010E9469196B017C010E94371764
:103700004B015C010E943717DC01CB018819990934
:10371000AA09BB09883E9340A105B10598F30E9410
:103720004F1A0E946919DC01CB018C199D09AE0961
:10373000BF0984159505A605B70500F3FF90EF9026
:10374000DF90CF90BF90AF909F908F907F906F90C1
:103750005F904F9008956F927F928F929F92AF9259
:10376000BF92CF92DF92EF920F931F93CF93DF938D
:10377000EC014A0159013801FA01C080D180E28090
:10378000FB0120813181428105E010E060E070E0C2
:103790000E944F04F501C080D180E280F4012081B5
:1037A000318142810AE010E065E070E0CE010E94C4
:1037B0004F04F301C080D180E280F5012081318186
:1037C00042810FE010E06AE070E0CE010E944F04F9
:1037D000DF91CF911F910F91EF90DF90CF90BF902D
:1037E000AF909F908F907F906F900895362F329575
:1037F0003F70262F2F70FC01832F880F830FDF016E
:10380000A80FB11D6C9111967C91119712968C9115
:103810001297222309F429C03F3011F0FD0133969D
:103820002295207F522F50953081659F060E60E0D3
:10383000611D329F030E30E0311D630F3181759F92
:10384000070E70E0711D329F030E30E0311D730FC3
:103850004281382F359F030E30E0311D429F040E08
:1038600040E0411D832F840F112408958617970788
:1038700010F40C94231AC096605D7F4F20E330E073
:10388000FB01DC0120FF05C002C002900E920290F5
:103890000E922250D0F73040C0F70895282F309173
:1038A0002C05313208F04AC0809108058111FCCF07
:1038B00090912B0542E040930805209307052FEFD8
:1038C000209306051092050530930405EBE0F5E022
:1038D000A4EEB4E020E0321721F041914D932F5F28
:1038E000FACF1092E3042091E304990F922B909366
:1038F000E3049091E204913061F41092E20490911B
:10390000E3049093BB009091BC0093FDF8CF95EC3D
:1039100001C095EE9093BC00909108059230E1F3C0
:10392000909106059F3F79F080910605803241F025
:1039300080910605803331F084E005C081E003C04A
:1039400082E001C083E010920A0510922C051092CB
:1039500009050895CF93DF9300D000D0CDB7DEB72F
:10396000789484B5826084BD84B5816084BD85B55A
:10397000826085BD85B5816085BD80916E00816066
:1039800080936E001092810080918100826080930C
:10399000810080918100816080938100809180000E
:1039A0008160809380008091B10084608093B10039
:1039B0008091B00081608093B00080917A00846033
:1039C00080937A0080917A00826080937A0080915F
:1039D0007A00816080937A0080917A008068809379
:1039E0007A001092C100E0913F05F091400582E01D
:1039F0008083E0913B05F0913C051082E0913D050C
:103A0000F0913E0580E1808310924705E0914305E7
:103A1000F091440586E08083E0914105F0914205F4
:103A2000808180618083E0914105F0914205808131
:103A300088608083E0914105F09142058081806833
:103A40008083E0914105F091420580818F7D8083E4
:103A500082EF94E00E94CA1480EE94E00E94CA149F
:103A60008FEC94E00E94CA1481E894E00E94CA148A
:103A700080E894E00E94CA148FE794E00E94CA1480
:103A800082E794E00E9470140E94A80E0E9498148D
:103A900081E794E00E94CA1483E00E94C31684E088
:103AA0000E94C316109268041092670410920A05CF
:103AB00010922C051092080581E080930705109262
:103AC000E20482E10E949D1683E10E949D1680918E
:103AD000B9008E7F8093B9008091B9008D7F80936B
:103AE000B90088E48093B80085E48093BC0087EF38
:103AF0009BE09093BC048093BB0488EF9BE0909381
:103B0000BA048093B90488E594E00E94701480910F
:103B1000EE051C82AE014C5F5F4F6DE20E943A16CB
:103B200041E064E08091EE050E94651641E063E0AB
:103B30008091EE050E94651682E594E00E94CA1409
:103B400083E394E00E94701408EE13E02FEE35E05A
:103B500041E060E08091EE050E94F3128091EF0554
:103B6000853E19F483E194E002C087EF93E00E9460
:103B7000CA1486E891E00E941D1484E891E00E9436
:103B80001D1484EE93E00E9470148091EE051B8258
:103B9000AE014D5F5F4F6FE10E943A1686EA91E0F9
:103BA0000E941D1484E891E00E941D1487EC93E0AC
:103BB0000E947014F090EE0508EE13E09E012E5F57
:103BC0003F4F41E061E38F2D0E94F312882361F0A3
:103BD0008A818C7F82608A838983AE014F5F5F4FC9
:103BE00061E38F2D0E943A1681EC93E00E94CA1483
:103BF00083E893E00E9470140E9469194B015C01F4
:103C00001092BD041092BE041092BF041092C00422
:103C1000C12CD12C0E946919DC01CB0188199909AA
:103C2000AA09BB09883E9340A105B105D0F40E94C2
:103C30007D039B01AC016091BD047091BE04809135
:103C4000BF049091C0040E9445216093BD0470930D
:103C5000BE048093BF049093C0048FEFC81AD80AA3
:103C6000D9CFE12CF12CC701B6010E945E229B0145
:103C7000AC016091BD047091BE048091BF0490912D
:103C8000C0040E94B6216093BD047093BE0480936B
:103C9000BF049093C00487E293E00E9470144AE04E
:103CA000C701B6010E942F148AE093E00E947014AD
:103CB000C090BD04D090BE04E090BF04F090C0045A
:103CC000A7019601C701B6010E948223882319F03B
:103CD0008CEA91E01AC046015701E894B7F82FEF3B
:103CE0003FEF4FE75FE7C501B4010E9482238111D6
:103CF0000FC02FEF3FEF4FE75FE7C501B4010E9410
:103D0000B12118162CF480EB91E00E941D1476C0AE
:103D10002FEF3FEF4FE75FE4C701B6010E9410238A
:103D200018161CF484EB91E0F0CF2FEF3FEF4FE734
:103D30005FECC701B6010E94B12187FDF3CF20E0FF
:103D400030E0A901C701B6010E94B12187FF09C077
:103D50006DE28FE295E00E94FA18F7FAF094F7F816
:103D6000F0942AE037ED43EA5BE3C701B6010E9415
:103D700045214B015C010E942F226B017C010E94B6
:103D80005E229B01AC01C501B4010E9444214B019C
:103D90005C014AE0C701B6010E942F146EE28FE277
:103DA00095E00E94FA1820E030E040E251E4C501BD
:103DB000B4010E9415234B015C010E942F226B016C
:103DC000E12CF12C4AE0C701B6010E942F14C70173
:103DD000B6010E945E229B01AC01C501B4010E94A4
:103DE000442120E030E040E251E40E9415230E948B
:103DF0002F2280E090E04AE00E942F1484E891E0B6
:103E00000E941D148DE793E00E94CA148CE793E092
:103E10000E94CA1484E693E00E9470148091D50435
:103E2000811147C01092C6041092C5048FEF809391
:103E3000C9048093CA048093CB048093CC048093FC
:103E4000CD048093CE0481E08093CF041092D104FE
:103E50001092D0041092C8041092C70480912D05CE
:103E600090912E05892B31F483EC94E090932E05EC
:103E700080932D05E091C104F091C204309721F0A8
:103E800083EC94E09583848383EC94E09093C20464
:103E90008093C10486E291E09093C4048093C304AC
:103EA0001092D3041092D2041092D40481E0809333
:103EB000D50482ED94E00E94EB1687EB92E090939C
:103EC000C6048093C50480E990E09093D104809368
:103ED000D0048FEF8093C90480EB8093CA0480EFF5
:103EE0008093CB048AE08093F5050E94331A0E94E8
:103EF0004F1A8EE593E00E94CA148DE593E00E946C
:103F0000CA148EE493E00E94CA148DE493E00E94E8
:103F1000CA1480E493E00E9470140E94A80E0E94CC
:103F200098140E9469190E94DD040E94BB0BFBCF0C
:103F3000EFE2F5E01382128288EE93E0A0E0B0E0B9
:103F400084839583A683B78322E431E03183208381
:103F500025EC30E03587248724EC30E0378726874E
:103F600020EC30E0318B208B21EC30E0338B228B46
:103F700022EC30E0358B248B26EC30E0378B268B1F
:103F8000118E128E138E148EECECF5E013821282D9
:103F900084839583A683B78384E591E091838083AE
:103FA000E8EDF5E080E6808380E1818380E4828330
:103FB000EBEDF5E083E1DF011D928A95E9F78FEFE4
:103FC000808B818B828B93E59093EE05E5EFF5E096
:103FD000808312821182148613868FEF9FEFDC019B
:103FE00087839087A187B28708958F929F92AF921F
:103FF000BF92CF92DF92EF92FF92CF93DF93EC01CB
:10400000688179818A819B8161157105810591059E
:1040100021F464E279ED8BE597E02DE133EF41E0A7
:1040200050E00E94972049015A019B01AC01A7EA88
:10403000B1E40E94B6206B017C01ACEEB4EFA501A7
:1040400094010E94C420DC01CB018C0D9D1DAE1D8E
:10405000BF1DB7FF03C00197A109B04888839983AA
:10406000AA83BB83BC01CD019F77DF91CF91FF90E5
:10407000EF90DF90CF90BF90AF909F908F9008957A
:104080008F929F92AF92BF92CF92DF92EF92FF9268
:1040900060910401709105018091060190910701E2
:1040A000611571058105910521F464E279ED8BE5D7
:1040B00097E02DE133EF41E050E00E949720490165
:1040C0005A019B01AC01A7EAB1E40E94B6206B0142
:1040D0007C01ACEEB4EFA50194010E94C420DC0188
:1040E000CB018C0D9D1DAE1DBF1DB7FF03C00197F9
:1040F000A109B0488093040190930501A0930601A3
:10410000B0930701BC01CD019F77FF90EF90DF9046
:10411000CF90BF90AF909F908F90089560930401CF
:104120007093050180930601909307010895052E71
:1041300097FB1EF400940E94AE2057FD07D00E940A
:10414000C92007FC03D04EF40C94AE205095409546
:10415000309521953F4F4F4F5F4F08959095809533
:10416000709561957F4F8F4F9F4F08950E94EB2070
:10417000A59F900DB49F900DA49F800D911D1124BB
:104180000895B7FF0C94B6200E94B620821B930BB3
:104190000895A1E21A2EAA1BBB1BFD010DC0AA1F88
:1041A000BB1FEE1FFF1FA217B307E407F50720F0A0
:1041B000A21BB30BE40BF50B661F771F881F991F1B
:1041C0001A9469F760957095809590959B01AC0164
:1041D000BD01CF010895A29FB001B39FC001A39F6D
:1041E000700D811D1124911DB29F700D811D112430
:1041F000911D0895DB018F939F930E94B620BF917C
:10420000AF91A29F800D911DA39F900DB29F900D25
:1042100011240895991B79E004C0991F961708F09E
:10422000961B881F7A95C9F78095089597FB072EEE
:1042300016F4009407D077FD09D00E942A2107FCCC
:1042400005D03EF4909581959F4F089570956195A6
:104250007F4F0895AA1BBB1B51E107C0AA1FBB1FBC
:10426000A617B70710F0A61BB70B881F991F5A9502
:10427000A9F780959095BC01CD010895EE0FFF1F21
:104280000590F491E02D09945058BB27AA270E946D
:104290005C210C94D6220E94C82238F00E94CF22C2
:1042A00020F039F49F3F19F426F40C94C5220EF443
:1042B000E095E7FB0C94BF22E92F0E94E72258F318
:1042C000BA17620773078407950720F079F4A6F5FB
:1042D0000C9409230EF4E0950B2EBA2FA02D0B01A0
:1042E000B90190010C01CA01A0011124FF27591B3B
:1042F00099F0593F50F4503E68F11A16F040A22F41
:10430000232F342F4427585FF3CF469537952795B1
:10431000A795F0405395C9F77EF41F16BA0B620BB0
:10432000730B840BBAF09150A1F0FF0FBB1F661FF7
:10433000771F881FC2F70EC0BA0F621F731F841F3A
:1043400048F4879577956795B795F7959E3F08F060
:10435000B0CF9395880F08F09927EE0F9795879522
:1043600008950E949B2208F481E008950E94CA21CA
:104370000C94D6220E94CF2258F00E94C82240F00E
:1043800029F45F3F29F00C94BF2251110C940A23A9
:104390000C94C5220E94E72268F39923B1F35523B8
:1043A00091F3951B550BBB27AA2762177307840748
:1043B00038F09F5F5F4F220F331F441FAA1FA9F3DE
:1043C00035D00E2E3AF0E0E832D091505040E695CC
:1043D000001CCAF72BD0FE2F29D0660F771F881F2D
:1043E000BB1F261737074807AB07B0E809F0BB0B20
:1043F000802DBF01FF2793585F4F3AF09E3F510534
:1044000078F00C94BF220C940A235F3FE4F3983EAB
:10441000D4F3869577956795B795F7959F5FC9F71C
:10442000880F911D9695879597F90895E1E0660F9D
:10443000771F881FBB1F621773078407BA0720F016
:10444000621B730B840BBA0BEE1F88F7E09508957F
:104450000E942F226894B1110C940A2308950E949F
:10446000EF2288F09F5798F0B92F9927B751B0F0F5
:10447000E1F0660F771F881F991F1AF0BA95C9F7E8
:1044800014C0B13091F00E940923B1E008950C945A
:104490000923672F782F8827B85F39F0B93FCCF30D
:1044A000869577956795B395D9F73EF49095809565
:1044B000709561957F4F8F4F9F4F0895E89409C085
:1044C00097FB3EF490958095709561957F4F8F4F47
:1044D0009F4F9923A9F0F92F96E9BB279395F6955D
:1044E000879577956795B795F111F8CFFAF4BB0FDB
:1044F00011F460FF1BC06F5F7F4F8F4F9F4F16C03F
:10450000882311F096E911C0772321F09EE8872FC8
:10451000762F05C0662371F096E8862F70E060E084
:104520002AF09A95660F771F881FDAF7880F9695FD
:10453000879597F90895990F0008550FAA0BE0E8A1
:10454000FEEF16161706E807F907C0F01216130655
:10455000E407F50798F0621B730B840B950B39F495
:104560000A2661F0232B242B252B21F408950A26FB
:1045700009F4A140A6958FEF811D811D089597F93B
:104580009F6780E870E060E008959FEF80EC0895F9
:1045900000240A9416161706180609060895002422
:1045A0000A9412161306140605060895092E03949C
:1045B000000C11F4882352F0BB0F40F4BF2B11F410
:1045C00060FF04C06F5F7F4F8F4F9F4F089557FD6F
:1045D0009058440F551F59F05F3F71F04795880F71
:1045E00097FB991F61F09F3F79F087950895121608
:1045F00013061406551FF2CF4695F1DF08C01616B4
:1046000017061806991FF1CF869571056105089464
:104610000895E894BB2766277727CB0197F908957B
:104620000E949B2208F48FEF08950E9428230C9487
:10463000D6220E94C82238F00E94CF2220F0952373
:1046400011F00C94BF220C94C52211240C940A235F
:104650000E94E72270F3959FC1F3950F50E0551F1C
:10466000629FF001729FBB27F00DB11D639FAA27C7
:10467000F00DB11DAA1F649F6627B00DA11D661F16
:10468000829F2227B00DA11D621F739FB00DA11D37
:10469000621F839FA00D611D221F749F3327A00DF1
:1046A000611D231F849F600D211D822F762F6A2F8D
:1046B00011249F5750409AF0F1F088234AF0EE0FF2
:1046C000FF1FBB1F661F771F881F91505040A9F71F
:1046D0009E3F510580F00C94BF220C940A235F3F4B
:1046E000E4F3983ED4F3869577956795B795F7955B
:1046F000E7959F5FC1F7FE2B880F911D96958795D3
:1047000097F908950E949B22880B990B089581E0E8
:0C47100090E0F8940C948C23F894FFCFF8
:10471C000139050101000000E803003131295A1B61
:10472C00750A00000000EE18EE18EE18AE02D70263
:10473C00DB02000000003A03DE02550DAE02D70288
:10474C00DB02850C0A0F14283C648CB4DCF00000EE
:10475C000000FA189318BD184719AF0BCC18E018C5
:10476C0000000000520C250C820CF90B1D0C090CDE
:10477C00FA0B427574746F6E20312070726573730E
:10478C0065642C206272696768746E657373206946
:10479C00733A20000D0A00427574746F6E2032203B
:1047AC00707265737365642C2070726F6772616DC3
:1047BC002069733A2000446F6E652E006E616E00A6
:0847CC00696E66006F7666005D
:00000001FF
